:100000000C9462000C948A000C948A000C948A0070
:100010000C948A000C948A000C948A000C948A0038
:100020000C948A000C948A000C948A000C948A0028
:100030000C948A000C948A000C948A000C948A0018
:100040000C9445040C948A000C9413040C94ED0356
:100050000C948A000C948A000C948A000C948A00F8
:100060000C948A000C948A000000000024002700F1
:100070002A0000000000250028002B0000000000DE
:1000800023002600290004040404040404040202DA
:100090000202020203030303030301020408102007
:1000A0004080010204081020010204081020000012
:1000B0000008000201000003040700000000000027
:1000C00000007F0811241FBECFEFD8E0DEBFCDBFF8
:1000D00011E0A0E0B1E0E8E6F1E102C005900D9288
:1000E000AC31B107D9F722E0ACE1B1E001C01D921B
:1000F000A43EB207E1F710E0C2E6D0E004C02197C9
:10010000FE010E94AC08C136D107C9F70E948F04D6
:100110000C94B2080C940000AF92BF92CF92DF9281
:10012000EF92FF920F931F93CF93DF936C017B01AC
:100130008B01040F151FEB015E01AE18BF08C0173D
:10014000D10759F06991D601ED91FC910190F081B0
:10015000E02DC6010995892B79F7C501DF91CF9173
:100160001F910F91FF90EF90DF90CF90BF90AF90D5
:100170000895FC01538D448D252F30E0842F90E0AD
:10018000821B930B541710F0CF9608950197089592
:10019000FC01918D828D981761F0A28DAE0FBF2F5B
:1001A000B11D5D968C91928D9F5F9F73928F90E0B1
:1001B00008958FEF9FEF0895FC01918D828D981720
:1001C00031F0828DE80FF11D858D90E008958FEF5D
:1001D0009FEF0895FC01918D228D892F90E0805C26
:1001E0009F4F821B91098F739927089587E492E0AE
:1001F0000E94EA0021E0892B09F420E0822F089573
:1002000080E090E0892B29F00E94F60081110C9487
:1002100000000895FC01A48DA80FB92FB11DA35AA9
:10022000BF4F2C91848D90E001968F739927848F16
:10023000A689B7892C93A089B1898C918370806439
:100240008C93938D848D981306C00288F389E02DDA
:1002500080818F7D80830895EF92FF920F931F938B
:10026000CF93DF93EC0181E0888F9B8D8C8D981369
:100270001AC0E889F989808185FF15C09FB7F89475
:10028000EE89FF896083E889F989808183708064C1
:1002900080839FBF81E090E0DF91CF911F910F910C
:1002A000FF90EF900895F62E0B8D10E00F5F1F4F1B
:1002B0000F731127E02E8C8D8E110CC00FB607FC2A
:1002C000FACFE889F989808185FFF5CFCE010E94B8
:1002D0000A01F1CFEB8DEC0FFD2FF11DE35AFF4F1B
:1002E000F0829FB7F8940B8FEA89FB898081806246
:1002F000CFCF682F87E492E00C942C01CF93DF934B
:10030000EC01888D8823B9F0AA89BB89E889F9892D
:100310008C9185FD03C0808186FD0DC00FB607FC62
:10032000F7CF8C9185FFF2CF808185FFEDCFCE0195
:100330000E940A01E9CFDF91CF910895833081F0C7
:1003400028F4813099F08230A9F008958730A9F01F
:100350008830C9F08430B1F4809180008F7D03C073
:10036000809180008F7780938000089584B58F7787
:1003700084BD089584B58F7DFBCF8091B0008F77C9
:100380008093B00008958091B0008F7DF9CF1F93C6
:10039000CF93DF93282F30E0F901E255FF4F84918E
:1003A000F901E656FF4FD491F901EA57FF4FC49186
:1003B000CC23A9F0162F81110E949E01EC2FF0E0B2
:1003C000EE0FFF1FEE58FF4FA591B4918FB7F89431
:1003D000EC91111108C0D095DE23DC938FBFDF9123
:1003E000CF911F910895DE2BF8CF8F929F92AF92FD
:1003F000BF92CF92DF92EF92FF920F931F93CF9312
:10040000DF93C82F08E010E06FEBE62E60E0F62ED9
:100410007BEAC72E70E0D72EE7E9AE2EE0E0BE2ED5
:100420006C2F661F6627661F80E10E94C70161E08E
:1004300082E10E94C7018091430290914402823080
:10044000910538F0880F991F880F991F059701971C
:10045000F1F78C2E912C880C991CF7018491F601F0
:10046000C491F501D491DD2379F081110E949E01A0
:10047000ED2FF0E0EE0FFF1FE458FF4FA591B49170
:100480008C918C23C1E009F4C0E0C82960E082E1CE
:100490000E94C701809143029091440282309105ED
:1004A00038F0880F991F880F991F05970197F1F76A
:1004B0000150110909F0B4CF8C2FDF91CF911F911A
:1004C0000F91FF90EF90DF90CF90BF90AF909F90F3
:1004D0008F900895CF93DF9390E0FC01E656FF4F95
:1004E00024918A579F4FFC0184918823D1F090E09A
:1004F000880F991FFC01E859FF4FA591B491FC01A9
:10050000EE58FF4FC591D49161110EC09FB7F8947A
:100510008C91E22FE0958E238C932881E223E8834F
:100520009FBFDF91CF9108958FB7F894EC91E22BA4
:10053000EC938FBFF6CF3FB7F89480911D01909157
:100540001E01A0911F01B091200126B5A89B05C0F6
:100550002F3F19F00196A11DB11D3FBFBA2FA92F42
:10056000982F8827BC01CD01620F711D811D911D3F
:1005700042E0660F771F881F991F4A95D1F70895AB
:100580008F929F92AF92BF92CF92DF92EF92FF92A3
:100590004B015C010E949B026B017C010E949B024B
:1005A0006C197D098E099F09683E7340810591058C
:1005B000A8F321E0821A9108A108B10888EEC80EBC
:1005C00083E0D81EE11CF11C81149104A104B10444
:1005D00029F7FF90EF90DF90CF90BF90AF909F9062
:1005E0008F9008951F93CF93DF93182FC3E0D0E02F
:1005F00061E0812F0E94C7016EE170E080E090E031
:100600000E94C00260E0812F0E94C7016EE170E08D
:1006100080E090E00E94C002219751F7DF91CF91D6
:100620001F91089580913F0290914002019690930E
:10063000400280933F0285E10C94790120913401BE
:100640003091350180913D0290913E02203231057A
:1006500011F4807F08952034310511F4807E0895CF
:100660002038310511F4807C08952115314009F4BA
:10067000807808951F93CF93DF93162FD42FC22F26
:100680000E94F501812F0E94F5018D2F0E94F50136
:100690008C2FDF91CF911F910C94F501CF93DF93B5
:1006A000D82FC92F60E087E00E94C70120E04D2FBE
:1006B0006C2F8CE40E943A036EE170E080E090E0E1
:1006C0000E94C00261E087E0DF91CF910C94C701E6
:1006D00087E492E00E94EA00892BD1F387E492E05C
:1006E0000E94C8000895CF93C82F0E9468038032EB
:1006F00051F484E10E9479018C2F0E94790180E1FC
:10070000CF910C94790180913F0290914002019623
:100710009093400280933F0285E1F2CF0E946803EC
:10072000803231F484E10E94790180E10C947901F6
:1007300080913F02909140020196909340028093F5
:100740003F0285E1F3CF0F931F93CF93DF938C018B
:10075000CCE3D1E0CE018C5391408017910724F473
:100760000E9468038993F6CFDF91CF911F910F917B
:100770000895EF92FF920F931F93CF93DF93EC01B5
:100780008B01CB010E94A30360E087E00E94C701B8
:100790008CE3E82E81E0F82E0C0F1D1FC017D10747
:1007A00081F0F70121917F014C2F6D2F80EC0E9489
:1007B0003A036DE270E080E090E00E94C002219672
:1007C000EDCF61E087E00E94C70180E1DF91CF912A
:1007D0001F910F91FF90EF9008951F920F920FB607
:1007E0000F9211242F933F934F935F936F937F93B7
:1007F0008F939F93AF93BF93EF93FF9387E492E020
:100800000E940A01FF91EF91BF91AF919F918F914B
:100810007F916F915F914F913F912F910F900FBEFC
:100820000F901F9018951F920F920FB60F921124E0
:100830002F938F939F93EF93FF93E0915702F09143
:1008400058028081E0915D02F0915E0282FD1BC042
:100850009081809160028F5F8F7320916102821777
:1008600041F0E0916002F0E0E95BFD4F958F8093ED
:100870006002FF91EF919F918F912F910F900FBE8A
:100880000F901F9018958081F4CF1F920F920FB692
:100890000F9211242F933F938F939F93AF93BF9306
:1008A0008091210190912201A0912301B091240116
:1008B00030911C0123E0230F2D3758F50196A11D1F
:1008C000B11D20931C018093210190932201A093DC
:1008D0002301B093240180911D0190911E01A091EC
:1008E0001F01B09120010196A11DB11D80931D0132
:1008F00090931E01A0931F01B0932001BF91AF916F
:100900009F918F913F912F910F900FBE0F901F904D
:10091000189526E8230F0296A11DB11DD2CF789419
:1009200084B5826084BD84B5816084BD85B58260F4
:1009300085BD85B5816085BD80916E0081608093A5
:100940006E0010928100809181008260809381000E
:10095000809181008160809381008091800081601E
:10096000809380008091B10084608093B100809179
:10097000B00081608093B00080917A0084608093A1
:100980007A0080917A00826080937A0080917A0068
:10099000816080937A0080917A00806880937A00E9
:1009A0001092C100E0915702F091580282E08083DA
:1009B000E0915302F09154021082E0915502F091BF
:1009C000560287E6808310925F02E0915B02F0910D
:1009D0005C0286E08083E0915902F0915A028081A6
:1009E00080618083E0915902F0915A028081886091
:1009F0008083E0915902F0915A028081806880835F
:100A0000E0915902F0915A0280818F7D808361E0EC
:100A100087E00E946A0287E090E00E94F20261E0B3
:100A200088E00E946A0288E090E00E94F20261E0A1
:100A30008DE00E946A028DE090E00E94F2021BE8C5
:100A4000412E5524539400E0202E00E0302E84E007
:100A5000882E912CA12CB12C66246394712C80914A
:100A600041029091420261E0892B09F460E087E045
:100A70000E94C70180913F029091400261E0892B62
:100A800009F460E088E00E94C7012FB7F8948091D4
:100A9000210190912201A0912301B09124012FBF47
:100AA0004091250150912601609127017091280104
:100AB0008C019D01041B150B260B370BB901A801F6
:100AC000483251056105710518F180932501909315
:100AD0002601A0932701B0932801C09101018091C4
:100AE0000001C13C20F081958093000102C0C0321A
:100AF000D0F380910001C80FC093010161E08DE047
:100B00000E946A02C1112BC060E08DE00E94C70103
:100B100087E492E00E94EA00892B09F431C20E9426
:100B20006803813509F49EC208F0ECC0813409F4F1
:100B300076C108F05BC0803309F458C1813309F4F1
:100B40005CC1803209F0CBC280913F02909140029B
:100B500001969093400280933F0285E106C2CF3F09
:100B600011F461E0D2CFEBEBF0E08491833019F126
:100B700038F48130B1F08230C9F0C7FDF2CFC4CF74
:100B8000873021F1883051F18430B9F780918000AD
:100B9000806280938000D0E0D0938B00C0938A0065
:100BA000B7CF84B5806884BDC7BDB2CF84B580623D
:100BB00084BDC8BDADCF80918000806880938000E7
:100BC000D0E0D0938900C0938800A2CF8091B0007C
:100BD00080688093B000C093B3009ACF8091B0003A
:100BE00080628093B000C093B40092CF853409F442
:100BF0002DC1803509F42FC1823409F070C284E11F
:100C000090E00E94A30320913C0120932901809150
:100C10003D0180932A0180913E0180932B018091B8
:100C20003F0180932C018091400180932D018091A0
:100C3000410180932E018091420180932F01809188
:100C40004301809330018091440180933101809170
:100C5000460190E0982F882730914701830F911D1E
:100C600090933301809332018091480190E0982F56
:100C7000882730914901830F911D9093350180930E
:100C8000340180914A0190E0982F882730914B01E0
:100C9000830F911D909337018093360180914C0111
:100CA00090E0B0E0A0E0BA2FA92F982F88273091CC
:100CB0004D01830F911DA11DB11DDC0199278827CE
:100CC00040914E0150E0542F4427052E000C660B36
:100CD000770B840F951FA61FB71F30914F01830F0D
:100CE000911DA11DB11D8093380190933901A093EE
:100CF0003A01B0933B0181E0203E08F480E080930C
:100D00003C0278C0813609F4FBC0C0F4863509F492
:100D10009AC1803609F4F2C0853509F0E0C10E941D
:100D20006803C82F0E94680390E0982F88278C0FD3
:100D3000911D90933E0280933D025CC0843709F47C
:100D40002BC1853709F4AAC1843609F0C8C10E94B5
:100D50006803C82FD0E0DC2FCC270E946803C80F9F
:100D6000D11D0E946803863409F0D1C0CE010E94D3
:100D7000A3030E946803803209F0E6CE84E10E945A
:100D800079010E941E036C013CE3E32E31E0F32E57
:100D9000C7018C5391408C179D070CF0B4C00E9482
:100DA0001E038C159D0531F0C6010E944E030E9462
:100DB0001E036C0100913D0210913E02F70120815B
:100DC000402F612F80E40E943A03F7012181402FD8
:100DD000612F88E40E943A030F5F1F4F10933E0279
:100DE00000933D02F2E0EF0EF11CD2CF10924002D0
:100DF00010923F020E948E03C3C00E94680380329B
:100E000009F0A2CE84E10E94790147E050E064E15C
:100E100071E087E492E00E948C0080E1A6C00E940D
:100E20006803813879F020F4803841F080E007C011
:100E3000823851F08339D1F783E501C082E00E9406
:100E400073039EC081E0FBCF82E1F9CF85E090E0A3
:100E50000E94A303CFCF8091410290914202892B3F
:100E600049F6C0913C026C2F8EE00E94C70161E000
:100E70008EE00E946A0260E082E10E94C70160E0A9
:100E800080E10E94C70161E082E10E946A0261E0A4
:100E900080E10E946A0260E081E10E946A02809221
:100EA000430290924402A0924502B092460260E052
:100EB00082E10E94C70164E170E080E090E00E945E
:100EC000C00261E06C278EE00E94C701C201019759
:100ED000F1F76C2F8EE00E94C70162E370E080E0C2
:100EE00090E00E94C00220E040E063E58CEA0E94AE
:100EF0003A0370924202609241027CCF0E946803E2
:100F00000E94680377CFC6010E944E0386CF8534C6
:100F100009F097C080913601909137018C179D0799
:100F200090F000913D0210913E02000F111FC1325E
:100F3000D105F0F060E270E0C8010E94B903005EE4
:100F40001F4FA097F4CF80913F02909140020196ED
:100F50009093400280933F02C1E10E946803803277
:100F600069F484E10E9479018C2F0E94790108C004
:100F7000BE01C8010E94B903C0E1EFCF0E94120375
:100F80002114310409F46BCD0E94F600882309F482
:100F900066CD0E94000063CD0E946803082F0E9466
:100FA0006803D82F0E946803C82F0E94680380320C
:100FB00019F00E941203E4CF10E0102F00270D0F4C
:100FC000111D84E10E947901C63419F5F12CE12C40
:100FD000E016F1060CF021CFC0913D02D0913E0207
:100FE00020E04C2F6D2F80E20E943A030E9479018D
:100FF00020E04C2F6D2F88E20E943A030E94790175
:101000002196D0933E02C0933D0222E0E20EF11CF5
:10101000DFCFC534B1F4C0913D02D0913E02CC0F78
:10102000DD1F0C0F1D1F0C171D0709F4F6CE2FEF47
:101030004C2F6D2F80EA0E943A030E94790121967D
:10104000F2CF81E192CF84E090E00E94A30320914F
:101050003F0140913E0160913D0180913C010E9421
:101060003A03EDCE1092400210923F0260E080E120
:101070000E946A0260E082E10E946A0260913C0282
:1010800081E068278EE00E94C70160E08EE00E9448
:101090006A021092420210924102ACCE0E94680392
:1010A000803209F051CD84E10E94790120E040E0D6
:1010B00060E080E30E943A030E94790120E041E071
:1010C00060E080E30E943A030E94790120E042E060
:1010D00060E080E30E943A030E9479019ECE8091F5
:1010E0003F029091400201969093400280933F020C
:1010F0000E946803803209F030CD82E136CFE7E408
:10110000F2E01382128288EE93E0A0E0B0E08483E4
:101110009583A683B78386E091E09183808385ECF5
:1011200090E09587848784EC90E09787868780ECB1
:1011300090E0918B808B81EC90E0938B828B82ECA2
:1011400090E0958B848B86EC90E0978B868B118E4C
:10115000128E138E148E0895EE0FFF1F0590F491DA
:08116000E02D0994F894FFCF83
:101168000880000000002C018C00B9007E01EA0014
:0C117800C800DC004156522049535000D2
:00000001FF
